{
  "_format": "hh-sol-artifact-1",
  "contractName": "ProxyAdmin",
  "sourceName": "@openzeppelin/contracts/proxy/transparent/ProxyAdmin.sol",
  "abi": [
    {
      "inputs": [
        {
          "internalType": "address",
          "name": "initialOwner",
          "type": "address"
        }
      ],
      "stateMutability": "nonpayable",
      "type": "constructor"
    },
    {
      "inputs": [
        {
          "internalType": "address",
          "name": "owner",
          "type": "address"
        }
      ],
      "name": "OwnableInvalidOwner",
      "type": "error"
    },
    {
      "inputs": [
        {
          "internalType": "address",
          "name": "account",
          "type": "address"
        }
      ],
      "name": "OwnableUnauthorizedAccount",
      "type": "error"
    },
    {
      "anonymous": false,
      "inputs": [
        {
          "indexed": true,
          "internalType": "address",
          "name": "previousOwner",
          "type": "address"
        },
        {
          "indexed": true,
          "internalType": "address",
          "name": "newOwner",
          "type": "address"
        }
      ],
      "name": "OwnershipTransferred",
      "type": "event"
    },
    {
      "inputs": [],
      "name": "UPGRADE_INTERFACE_VERSION",
      "outputs": [
        {
          "internalType": "string",
          "name": "",
          "type": "string"
        }
      ],
      "stateMutability": "view",
      "type": "function"
    },
    {
      "inputs": [],
      "name": "owner",
      "outputs": [
        {
          "internalType": "address",
          "name": "",
          "type": "address"
        }
      ],
      "stateMutability": "view",
      "type": "function"
    },
    {
      "inputs": [],
      "name": "renounceOwnership",
      "outputs": [],
      "stateMutability": "nonpayable",
      "type": "function"
    },
    {
      "inputs": [
        {
          "internalType": "address",
          "name": "newOwner",
          "type": "address"
        }
      ],
      "name": "transferOwnership",
      "outputs": [],
      "stateMutability": "nonpayable",
      "type": "function"
    },
    {
      "inputs": [
        {
          "internalType": "contract ITransparentUpgradeableProxy",
          "name": "proxy",
          "type": "address"
        },
        {
          "internalType": "address",
          "name": "implementation",
          "type": "address"
        },
        {
          "internalType": "bytes",
          "name": "data",
          "type": "bytes"
        }
      ],
      "name": "upgradeAndCall",
      "outputs": [],
      "stateMutability": "payable",
      "type": "function"
    }
  ],
  "bytecode": "0x60806040523461002a576100196100146100c2565b6100e0565b6040516105df61021f82396105df90f35b600080fd5b634e487b7160e01b600052604160045260246000fd5b90601f01601f191681019081106001600160401b0382111761006657604052565b61002f565b9061007f61007860405190565b9283610045565b565b6001600160a01b031690565b90565b6001600160a01b0381160361002a57565b9050519061007f82610090565b9060208282031261002a5761008d916100a1565b61008d6107fe803803806100d58161006b565b9283398101906100ae565b61007f90610112565b61008161008d61008d9290565b61008d906100e9565b6001600160a01b03909116815260200190565b600061011d816100f6565b6001600160a01b0381166001600160a01b0384161461014157505061007f906101c7565b631e4fbdf760e01b8252819061015a90600483016100ff565b0390fd5b61008d90610081565b61008d905461015e565b61008d90610081906001600160a01b031682565b61008d90610171565b61008d90610185565b906101a761008d6101c39261018e565b82546001600160a01b0319166001600160a01b03919091161790565b9055565b6101ed6101e76101d76000610167565b6101e2846000610197565b61018e565b9161018e565b907f8be0079c531659141344cd1fd0a4f28419497f9722a3daafe3b4186f6b6457e061021860405190565b600090a356fe6080604052600436101561001257600080fd5b60003560e01c8063715018a6146100625780638da5cb5b1461005d5780639623609d14610058578063ad3cb1cc146100535763f2fde38b0361007257610330565b6102f5565b610234565b6100c7565b610077565b600091031261007257565b600080fd5b3461007257610087366004610067565b61008f610380565b60405180805b0390f35b6001600160a01b031690565b90565b6100b190610099565b9052565b6020810192916100c591906100a8565b565b34610072576100d7366004610067565b6100956100e2610392565b604051918291826100b5565b6100a590610099565b610100816100ee565b0361007257565b905035906100c5826100f7565b61010081610099565b905035906100c582610114565b634e487b7160e01b600052604160045260246000fd5b90601f01601f1916810190811067ffffffffffffffff82111761016257604052565b61012a565b906100c561017460405190565b9283610140565b67ffffffffffffffff811161016257602090601f01601f19160190565b0190565b90826000939282370152565b909291926101bd6101b88261017b565b610167565b9381855281830111610072576100c591602085019061019c565b9080601f83011215610072578160206100a5933591016101a8565b91606083830312610072576102078284610107565b92610215836020830161011d565b92604082013567ffffffffffffffff8111610072576100a592016101d7565b61008f6102423660046101f2565b91610476565b906102556101b88361017b565b918252565b6102646005610248565b640352e302e360dc1b602082015290565b6100a561025a565b6100a5610275565b6100a561027d565b60005b8381106102a05750506000910152565b8181015183820152602001610290565b6102d16102da602093610198936102c5815190565b80835293849260200190565b9586910161028d565b601f01601f191690565b60208082526100a5929101906102b0565b3461007257610305366004610067565b610095610310610285565b604051918291826102e4565b90602082820312610072576100a59161011d565b346100725761008f61034336600461031c565b6104d7565b6103506104e0565b6100c561036e565b6100996100a56100a59290565b6100a590610358565b6100c561037b6000610365565b610552565b6100c5610348565b6100a590546100ee565b6100a56000610388565b906100c592916103aa6104e0565b610405565b6100a590610099906001600160a01b031682565b6100a5906103af565b6100a5906103c3565b916100a5926103ec604082019360008301906100a8565b60208184039101526102b0565b6040513d6000823e3d90fd5b61040e906103cc565b90634f1ef28691803b156100725761043b60009361044661042e60405190565b9687958694859460e01b90565b8452600484016103d5565b039134905af18015610471576104595750565b6100c59060006104698183610140565b810190610067565b6103f9565b906100c5929161039c565b6100c59061048d6104e0565b600061049881610365565b6104a181610099565b6104aa84610099565b146104ba5750506100c590610552565b631e4fbdf760e01b825281906104d390600483016100b5565b0390fd5b6100c590610481565b6104e8610392565b33906104fc6104f683610099565b91610099565b036105045750565b63118cdaa760e01b60009081529061051d9060046100b5565b036000fd5b906105326100a561054e926103cc565b82546001600160a01b0319166001600160a01b03919091161790565b9055565b6105786105726105626000610388565b61056d846000610522565b6103cc565b916103cc565b907f8be0079c531659141344cd1fd0a4f28419497f9722a3daafe3b4186f6b6457e06105a360405190565b600090a356fea26469706673582212207abfa00ffc5574506be65a4a8cb52ae6086c0830a67c1d77eaba8fdd46e4ae7664736f6c634300081c0033",
  "linkReferences": {},
  "deployedLinkReferences": {}
}