{
  "_format": "hh-sol-artifact-1",
  "contractName": "KettleMarketplace",
  "sourceName": "contracts/KettleMarketplace.sol",
  "abi": [
    {
      "inputs": [
        {
          "internalType": "bytes",
          "name": "err",
          "type": "bytes"
        }
      ],
      "name": "ERC6492DeployFailed",
      "type": "error"
    },
    {
      "inputs": [],
      "name": "ExpiredOffer",
      "type": "error"
    },
    {
      "inputs": [],
      "name": "InvalidCriteria",
      "type": "error"
    },
    {
      "inputs": [],
      "name": "InvalidFee",
      "type": "error"
    },
    {
      "inputs": [],
      "name": "InvalidInitialization",
      "type": "error"
    },
    {
      "inputs": [],
      "name": "InvalidRedeemer",
      "type": "error"
    },
    {
      "inputs": [],
      "name": "InvalidSalt",
      "type": "error"
    },
    {
      "inputs": [],
      "name": "InvalidSide",
      "type": "error"
    },
    {
      "inputs": [],
      "name": "InvalidSignature",
      "type": "error"
    },
    {
      "inputs": [],
      "name": "InvalidTaker",
      "type": "error"
    },
    {
      "inputs": [],
      "name": "InvalidToken",
      "type": "error"
    },
    {
      "inputs": [],
      "name": "InvalidVParameter",
      "type": "error"
    },
    {
      "inputs": [],
      "name": "NotInitializing",
      "type": "error"
    },
    {
      "inputs": [],
      "name": "OnlyOfferManager",
      "type": "error"
    },
    {
      "inputs": [
        {
          "internalType": "address",
          "name": "owner",
          "type": "address"
        }
      ],
      "name": "OwnableInvalidOwner",
      "type": "error"
    },
    {
      "inputs": [
        {
          "internalType": "address",
          "name": "account",
          "type": "address"
        }
      ],
      "name": "OwnableUnauthorizedAccount",
      "type": "error"
    },
    {
      "inputs": [],
      "name": "ReentrancyGuardReentrantCall",
      "type": "error"
    },
    {
      "inputs": [
        {
          "internalType": "address",
          "name": "token",
          "type": "address"
        }
      ],
      "name": "SafeERC20FailedOperation",
      "type": "error"
    },
    {
      "inputs": [],
      "name": "ZeroRedeemer",
      "type": "error"
    },
    {
      "inputs": [],
      "name": "ZeroTaker",
      "type": "error"
    },
    {
      "anonymous": false,
      "inputs": [
        {
          "indexed": false,
          "internalType": "uint64",
          "name": "version",
          "type": "uint64"
        }
      ],
      "name": "Initialized",
      "type": "event"
    },
    {
      "anonymous": false,
      "inputs": [
        {
          "indexed": true,
          "internalType": "bytes32",
          "name": "hash",
          "type": "bytes32"
        },
        {
          "indexed": true,
          "internalType": "uint256",
          "name": "tokenId",
          "type": "uint256"
        },
        {
          "indexed": true,
          "internalType": "address",
          "name": "taker",
          "type": "address"
        },
        {
          "components": [
            {
              "internalType": "enum Side",
              "name": "side",
              "type": "uint8"
            },
            {
              "internalType": "address",
              "name": "maker",
              "type": "address"
            },
            {
              "internalType": "address",
              "name": "taker",
              "type": "address"
            },
            {
              "components": [
                {
                  "internalType": "enum Criteria",
                  "name": "criteria",
                  "type": "uint8"
                },
                {
                  "internalType": "contract IERC721",
                  "name": "collection",
                  "type": "address"
                },
                {
                  "internalType": "uint256",
                  "name": "identifier",
                  "type": "uint256"
                }
              ],
              "internalType": "struct Collateral",
              "name": "collateral",
              "type": "tuple"
            },
            {
              "components": [
                {
                  "internalType": "contract IERC20",
                  "name": "currency",
                  "type": "address"
                },
                {
                  "internalType": "uint256",
                  "name": "amount",
                  "type": "uint256"
                }
              ],
              "internalType": "struct MarketOfferTerms",
              "name": "terms",
              "type": "tuple"
            },
            {
              "components": [
                {
                  "internalType": "address",
                  "name": "recipient",
                  "type": "address"
                },
                {
                  "internalType": "uint256",
                  "name": "rate",
                  "type": "uint256"
                }
              ],
              "internalType": "struct FeeTerms",
              "name": "fee",
              "type": "tuple"
            },
            {
              "internalType": "uint256",
              "name": "expiration",
              "type": "uint256"
            },
            {
              "internalType": "uint256",
              "name": "salt",
              "type": "uint256"
            }
          ],
          "indexed": false,
          "internalType": "struct MarketOffer",
          "name": "offer",
          "type": "tuple"
        }
      ],
      "name": "MarketOfferTaken",
      "type": "event"
    },
    {
      "anonymous": false,
      "inputs": [
        {
          "indexed": true,
          "internalType": "address",
          "name": "operator",
          "type": "address"
        },
        {
          "indexed": true,
          "internalType": "address",
          "name": "user",
          "type": "address"
        },
        {
          "indexed": true,
          "internalType": "uint256",
          "name": "nonce",
          "type": "uint256"
        }
      ],
      "name": "NonceIncremented",
      "type": "event"
    },
    {
      "anonymous": false,
      "inputs": [
        {
          "indexed": true,
          "internalType": "address",
          "name": "operator",
          "type": "address"
        },
        {
          "indexed": true,
          "internalType": "address",
          "name": "user",
          "type": "address"
        },
        {
          "indexed": true,
          "internalType": "uint256",
          "name": "salt",
          "type": "uint256"
        }
      ],
      "name": "OfferCancelled",
      "type": "event"
    },
    {
      "anonymous": false,
      "inputs": [
        {
          "indexed": true,
          "internalType": "address",
          "name": "manager",
          "type": "address"
        }
      ],
      "name": "OfferManagerUpdated",
      "type": "event"
    },
    {
      "anonymous": false,
      "inputs": [
        {
          "indexed": true,
          "internalType": "address",
          "name": "previousOwner",
          "type": "address"
        },
        {
          "indexed": true,
          "internalType": "address",
          "name": "newOwner",
          "type": "address"
        }
      ],
      "name": "OwnershipTransferred",
      "type": "event"
    },
    {
      "anonymous": false,
      "inputs": [
        {
          "indexed": true,
          "internalType": "bytes32",
          "name": "hash",
          "type": "bytes32"
        },
        {
          "components": [
            {
              "internalType": "address",
              "name": "redeemer",
              "type": "address"
            },
            {
              "internalType": "contract IERC721",
              "name": "collection",
              "type": "address"
            },
            {
              "internalType": "uint256",
              "name": "tokenId",
              "type": "uint256"
            },
            {
              "internalType": "contract IERC20",
              "name": "currency",
              "type": "address"
            },
            {
              "internalType": "uint256",
              "name": "amount",
              "type": "uint256"
            },
            {
              "internalType": "uint256",
              "name": "expiration",
              "type": "uint256"
            },
            {
              "internalType": "uint256",
              "name": "salt",
              "type": "uint256"
            }
          ],
          "indexed": false,
          "internalType": "struct RedemptionCharge",
          "name": "charge",
          "type": "tuple"
        }
      ],
      "name": "Redemption",
      "type": "event"
    },
    {
      "anonymous": false,
      "inputs": [
        {
          "indexed": true,
          "internalType": "address",
          "name": "signer",
          "type": "address"
        }
      ],
      "name": "RedemptionSignerUpdated",
      "type": "event"
    },
    {
      "anonymous": false,
      "inputs": [
        {
          "indexed": true,
          "internalType": "address",
          "name": "wallet",
          "type": "address"
        }
      ],
      "name": "RedemptionWalletUpdated",
      "type": "event"
    },
    {
      "inputs": [
        {
          "internalType": "address",
          "name": "owner",
          "type": "address"
        },
        {
          "internalType": "address",
          "name": "_redemptionSigner",
          "type": "address"
        },
        {
          "internalType": "address",
          "name": "_redemptionWallet",
          "type": "address"
        },
        {
          "internalType": "address",
          "name": "_offerManager",
          "type": "address"
        }
      ],
      "name": "__Kettle_init",
      "outputs": [],
      "stateMutability": "nonpayable",
      "type": "function"
    },
    {
      "inputs": [
        {
          "internalType": "uint256[]",
          "name": "salts",
          "type": "uint256[]"
        }
      ],
      "name": "cancelOffers",
      "outputs": [],
      "stateMutability": "nonpayable",
      "type": "function"
    },
    {
      "inputs": [
        {
          "internalType": "address",
          "name": "maker",
          "type": "address"
        },
        {
          "internalType": "uint256[]",
          "name": "salts",
          "type": "uint256[]"
        }
      ],
      "name": "cancelOffersForUser",
      "outputs": [],
      "stateMutability": "nonpayable",
      "type": "function"
    },
    {
      "inputs": [
        {
          "internalType": "address",
          "name": "",
          "type": "address"
        },
        {
          "internalType": "uint256",
          "name": "",
          "type": "uint256"
        }
      ],
      "name": "cancelledOrFulfilled",
      "outputs": [
        {
          "internalType": "uint256",
          "name": "",
          "type": "uint256"
        }
      ],
      "stateMutability": "view",
      "type": "function"
    },
    {
      "inputs": [
        {
          "components": [
            {
              "internalType": "enum Side",
              "name": "side",
              "type": "uint8"
            },
            {
              "internalType": "address",
              "name": "maker",
              "type": "address"
            },
            {
              "internalType": "address",
              "name": "taker",
              "type": "address"
            },
            {
              "components": [
                {
                  "internalType": "enum Criteria",
                  "name": "criteria",
                  "type": "uint8"
                },
                {
                  "internalType": "contract IERC721",
                  "name": "collection",
                  "type": "address"
                },
                {
                  "internalType": "uint256",
                  "name": "identifier",
                  "type": "uint256"
                }
              ],
              "internalType": "struct Collateral",
              "name": "collateral",
              "type": "tuple"
            },
            {
              "components": [
                {
                  "internalType": "contract IERC20",
                  "name": "currency",
                  "type": "address"
                },
                {
                  "internalType": "uint256",
                  "name": "amount",
                  "type": "uint256"
                }
              ],
              "internalType": "struct MarketOfferTerms",
              "name": "terms",
              "type": "tuple"
            },
            {
              "components": [
                {
                  "internalType": "address",
                  "name": "recipient",
                  "type": "address"
                },
                {
                  "internalType": "uint256",
                  "name": "rate",
                  "type": "uint256"
                }
              ],
              "internalType": "struct FeeTerms",
              "name": "fee",
              "type": "tuple"
            },
            {
              "internalType": "uint256",
              "name": "expiration",
              "type": "uint256"
            },
            {
              "internalType": "uint256",
              "name": "salt",
              "type": "uint256"
            }
          ],
          "internalType": "struct MarketOffer",
          "name": "offer",
          "type": "tuple"
        }
      ],
      "name": "hashMarketOffer",
      "outputs": [
        {
          "internalType": "bytes32",
          "name": "",
          "type": "bytes32"
        }
      ],
      "stateMutability": "view",
      "type": "function"
    },
    {
      "inputs": [
        {
          "internalType": "address",
          "name": "admin",
          "type": "address"
        },
        {
          "components": [
            {
              "internalType": "address",
              "name": "redeemer",
              "type": "address"
            },
            {
              "internalType": "contract IERC721",
              "name": "collection",
              "type": "address"
            },
            {
              "internalType": "uint256",
              "name": "tokenId",
              "type": "uint256"
            },
            {
              "internalType": "contract IERC20",
              "name": "currency",
              "type": "address"
            },
            {
              "internalType": "uint256",
              "name": "amount",
              "type": "uint256"
            },
            {
              "internalType": "uint256",
              "name": "expiration",
              "type": "uint256"
            },
            {
              "internalType": "uint256",
              "name": "salt",
              "type": "uint256"
            }
          ],
          "internalType": "struct RedemptionCharge",
          "name": "charge",
          "type": "tuple"
        }
      ],
      "name": "hashRedemptionCharge",
      "outputs": [
        {
          "internalType": "bytes32",
          "name": "",
          "type": "bytes32"
        }
      ],
      "stateMutability": "view",
      "type": "function"
    },
    {
      "inputs": [],
      "name": "incrementNonce",
      "outputs": [],
      "stateMutability": "nonpayable",
      "type": "function"
    },
    {
      "inputs": [
        {
          "internalType": "address",
          "name": "maker",
          "type": "address"
        }
      ],
      "name": "incrementNonceForUser",
      "outputs": [],
      "stateMutability": "nonpayable",
      "type": "function"
    },
    {
      "inputs": [
        {
          "internalType": "address",
          "name": "",
          "type": "address"
        }
      ],
      "name": "nonces",
      "outputs": [
        {
          "internalType": "uint256",
          "name": "",
          "type": "uint256"
        }
      ],
      "stateMutability": "view",
      "type": "function"
    },
    {
      "inputs": [],
      "name": "offerManager",
      "outputs": [
        {
          "internalType": "address",
          "name": "",
          "type": "address"
        }
      ],
      "stateMutability": "view",
      "type": "function"
    },
    {
      "inputs": [],
      "name": "owner",
      "outputs": [
        {
          "internalType": "address",
          "name": "",
          "type": "address"
        }
      ],
      "stateMutability": "view",
      "type": "function"
    },
    {
      "inputs": [
        {
          "components": [
            {
              "internalType": "address",
              "name": "redeemer",
              "type": "address"
            },
            {
              "internalType": "contract IERC721",
              "name": "collection",
              "type": "address"
            },
            {
              "internalType": "uint256",
              "name": "tokenId",
              "type": "uint256"
            },
            {
              "internalType": "contract IERC20",
              "name": "currency",
              "type": "address"
            },
            {
              "internalType": "uint256",
              "name": "amount",
              "type": "uint256"
            },
            {
              "internalType": "uint256",
              "name": "expiration",
              "type": "uint256"
            },
            {
              "internalType": "uint256",
              "name": "salt",
              "type": "uint256"
            }
          ],
          "internalType": "struct RedemptionCharge",
          "name": "charge",
          "type": "tuple"
        },
        {
          "internalType": "bytes",
          "name": "signature",
          "type": "bytes"
        }
      ],
      "name": "redeem",
      "outputs": [
        {
          "internalType": "bytes32",
          "name": "_hash",
          "type": "bytes32"
        }
      ],
      "stateMutability": "nonpayable",
      "type": "function"
    },
    {
      "inputs": [],
      "name": "redemptionSigner",
      "outputs": [
        {
          "internalType": "address",
          "name": "",
          "type": "address"
        }
      ],
      "stateMutability": "view",
      "type": "function"
    },
    {
      "inputs": [],
      "name": "redemptionWallet",
      "outputs": [
        {
          "internalType": "address",
          "name": "",
          "type": "address"
        }
      ],
      "stateMutability": "view",
      "type": "function"
    },
    {
      "inputs": [],
      "name": "renounceOwnership",
      "outputs": [],
      "stateMutability": "nonpayable",
      "type": "function"
    },
    {
      "inputs": [
        {
          "internalType": "address",
          "name": "_offerManager",
          "type": "address"
        }
      ],
      "name": "setOfferManager",
      "outputs": [],
      "stateMutability": "nonpayable",
      "type": "function"
    },
    {
      "inputs": [
        {
          "internalType": "address",
          "name": "_redemptionSigner",
          "type": "address"
        }
      ],
      "name": "setRedemptionSigner",
      "outputs": [],
      "stateMutability": "nonpayable",
      "type": "function"
    },
    {
      "inputs": [
        {
          "internalType": "address",
          "name": "_redemptionWallet",
          "type": "address"
        }
      ],
      "name": "setRedemptionWallet",
      "outputs": [],
      "stateMutability": "nonpayable",
      "type": "function"
    },
    {
      "inputs": [
        {
          "internalType": "address",
          "name": "taker",
          "type": "address"
        },
        {
          "components": [
            {
              "internalType": "enum Side",
              "name": "side",
              "type": "uint8"
            },
            {
              "internalType": "address",
              "name": "maker",
              "type": "address"
            },
            {
              "internalType": "address",
              "name": "taker",
              "type": "address"
            },
            {
              "components": [
                {
                  "internalType": "enum Criteria",
                  "name": "criteria",
                  "type": "uint8"
                },
                {
                  "internalType": "contract IERC721",
                  "name": "collection",
                  "type": "address"
                },
                {
                  "internalType": "uint256",
                  "name": "identifier",
                  "type": "uint256"
                }
              ],
              "internalType": "struct Collateral",
              "name": "collateral",
              "type": "tuple"
            },
            {
              "components": [
                {
                  "internalType": "contract IERC20",
                  "name": "currency",
                  "type": "address"
                },
                {
                  "internalType": "uint256",
                  "name": "amount",
                  "type": "uint256"
                }
              ],
              "internalType": "struct MarketOfferTerms",
              "name": "terms",
              "type": "tuple"
            },
            {
              "components": [
                {
                  "internalType": "address",
                  "name": "recipient",
                  "type": "address"
                },
                {
                  "internalType": "uint256",
                  "name": "rate",
                  "type": "uint256"
                }
              ],
              "internalType": "struct FeeTerms",
              "name": "fee",
              "type": "tuple"
            },
            {
              "internalType": "uint256",
              "name": "expiration",
              "type": "uint256"
            },
            {
              "internalType": "uint256",
              "name": "salt",
              "type": "uint256"
            }
          ],
          "internalType": "struct MarketOffer",
          "name": "offer",
          "type": "tuple"
        },
        {
          "internalType": "bytes",
          "name": "signature",
          "type": "bytes"
        }
      ],
      "name": "takeAsk",
      "outputs": [
        {
          "internalType": "bytes32",
          "name": "_hash",
          "type": "bytes32"
        }
      ],
      "stateMutability": "nonpayable",
      "type": "function"
    },
    {
      "inputs": [
        {
          "internalType": "uint256",
          "name": "tokenId",
          "type": "uint256"
        },
        {
          "components": [
            {
              "internalType": "enum Side",
              "name": "side",
              "type": "uint8"
            },
            {
              "internalType": "address",
              "name": "maker",
              "type": "address"
            },
            {
              "internalType": "address",
              "name": "taker",
              "type": "address"
            },
            {
              "components": [
                {
                  "internalType": "enum Criteria",
                  "name": "criteria",
                  "type": "uint8"
                },
                {
                  "internalType": "contract IERC721",
                  "name": "collection",
                  "type": "address"
                },
                {
                  "internalType": "uint256",
                  "name": "identifier",
                  "type": "uint256"
                }
              ],
              "internalType": "struct Collateral",
              "name": "collateral",
              "type": "tuple"
            },
            {
              "components": [
                {
                  "internalType": "contract IERC20",
                  "name": "currency",
                  "type": "address"
                },
                {
                  "internalType": "uint256",
                  "name": "amount",
                  "type": "uint256"
                }
              ],
              "internalType": "struct MarketOfferTerms",
              "name": "terms",
              "type": "tuple"
            },
            {
              "components": [
                {
                  "internalType": "address",
                  "name": "recipient",
                  "type": "address"
                },
                {
                  "internalType": "uint256",
                  "name": "rate",
                  "type": "uint256"
                }
              ],
              "internalType": "struct FeeTerms",
              "name": "fee",
              "type": "tuple"
            },
            {
              "internalType": "uint256",
              "name": "expiration",
              "type": "uint256"
            },
            {
              "internalType": "uint256",
              "name": "salt",
              "type": "uint256"
            }
          ],
          "internalType": "struct MarketOffer",
          "name": "offer",
          "type": "tuple"
        },
        {
          "internalType": "bytes",
          "name": "signature",
          "type": "bytes"
        },
        {
          "internalType": "bytes32[]",
          "name": "proof",
          "type": "bytes32[]"
        }
      ],
      "name": "takeBid",
      "outputs": [
        {
          "internalType": "bytes32",
          "name": "_hash",
          "type": "bytes32"
        }
      ],
      "stateMutability": "nonpayable",
      "type": "function"
    },
    {
      "inputs": [
        {
          "internalType": "address",
          "name": "newOwner",
          "type": "address"
        }
      ],
      "name": "transferOwnership",
      "outputs": [],
      "stateMutability": "nonpayable",
      "type": "function"
    }
  ],
  "bytecode": "0x608060405234601957604051612eb761001f8239612eb790f35b600080fdfe6080604052600436101561001257600080fd5b60003560e01c8063017d0ae0146101625780630457720b1461015d5780631d8253e0146101585780632a8ada08146101535780632c91baf01461014e578063406eedd6146101495780634ae25a8614610144578063627cdcb91461013f578063715018a61461013a57806375de89fa146101355780637619317b146101305780637e4cf8461461012b5780637ecebe00146101265780638996df56146101215780638cc341611461011c5780638da5cb5b14610117578063954056f714610112578063a7957b091461010d578063cf8ab94314610108578063e981d43e146101035763f2fde38b0361018657610749565b61072e565b610706565b6106c6565b61066a565b61064f565b610637565b610615565b610593565b610567565b610510565b6104e5565b61045b565b610443565b61042a565b6103ec565b61036c565b61034f565b610314565b6102b1565b61025d565b6001600160a01b031690565b90565b61017f81610167565b0361018657565b600080fd5b9050359061019882610176565b565b8061017f565b905035906101988261019a565b9190604083820312610186576101739060206101c9828661018b565b94016101a0565b61017390610167906001600160a01b031682565b610173906101d0565b610173906101e4565b90610200906101ed565b600052602052604060002090565b6101736101736101739290565b906102009061020e565b610173916008021c81565b906101739154610225565b6102546101739261024f600093603c6101f6565b61021b565b610230565b9052565b34610186576102896102796102733660046101ad565b9061023b565b6040519182918290815260200190565b0390f35b90816101809103126101865790565b9061018082820312610186576101739161028d565b34610186576102896102796102c736600461029c565b610761565b600091031261018657565b610173916008021c610167565b9061017391546102d7565b610173600060396102e4565b61025990610167565b60208101929161019891906102fb565b34610186576103243660046102cc565b61028961032f6102ef565b60405191829182610304565b90602082820312610186576101739161018b565b346101865761036761036236600461033b565b61077f565b604051005b346101865761036761037f36600461033b565b61079d565b909182601f83011215610186578135916001600160401b03831161018657602001926020830284011161018657565b919091604081840312610186576103ca838261018b565b9260208201356001600160401b038111610186576103e89201610384565b9091565b34610186576103676103ff3660046103b3565b91610875565b906020828203126101865781356001600160401b038111610186576103e89201610384565b346101865761036761043d366004610405565b90610880565b34610186576104533660046102cc565b6103676108bb565b346101865761046b3660046102cc565b6103676108fc565b909182601f83011215610186578135916001600160401b03831161018657602001926001830284011161018657565b916101c083830312610186576104b8828461018b565b926104c6836020830161028d565b926101a08201356001600160401b038111610186576103e89201610473565b34610186576102896102796104fb3660046104a2565b92919091610e76565b6101736000603a6102e4565b34610186576105203660046102cc565b61028961032f610504565b6080818303126101865761053f828261018b565b92610173610550846020850161018b565b936060610560826040870161018b565b940161018b565b346101865761036761057a36600461052b565b929190916110ad565b60006102546101739260066101f6565b34610186576102896102796105a936600461033b565b610583565b91906101e083820312610186576105c581846101a0565b926105d3826020830161028d565b926101a08201356001600160401b03811161018657836105f4918401610473565b9290936101c08201356001600160401b038111610186576103e89201610384565b346101865761028961027961062b3660046105ae565b949390939291926112c5565b346101865761036761064a36600461033b565b6112fd565b346101865761065f3660046102cc565b61028961032f611306565b346101865761036761067d36600461033b565b611344565b908160e09103126101865790565b91909161010081840312610186576106a88382610682565b9260e08201356001600160401b038111610186576103e89201610473565b34610186576102896102796106dc366004610690565b916115a8565b919061010083820312610186576101739060206106ff828661018b565b9401610682565b346101865761028961027961071c3660046106e2565b906115b5565b6101736000603b6102e4565b346101865761073e3660046102cc565b61028961032f610722565b346101865761036761075c36600461033b565b611611565b61017390611691565b6101989061077661175c565b610198906117b9565b6101989061076a565b6101989061079461175c565b610198906117f9565b61019890610788565b61017390610167565b61017390546107a6565b91906107cd6107c8603b6107af565b610167565b6107d633610167565b036107e4576101989261082e565b6382b9486160e01b600090815260045b036000fd5b634e487b7160e01b600052603260045260246000fd5b919081101561081f576020020190565b6107f9565b356101738161019a565b92919061083b600061020e565b8281101561086e578061086361085d61085861086994878761080f565b610824565b87611832565b60010190565b61083b565b5050509050565b9061019892916107b9565b91909161088d600061020e565b838110156108b557806108636108aa6108586108b094888761080f565b33611832565b61088d565b50509050565b610198336118c6565b6108cc61175c565b6101986108ea565b6101676101736101739290565b610173906108d4565b6101986108f760006108e1565b611933565b6101986108c4565b90610919949392916109146119ae565b610bcd565b90610198611a0c565b6002111561018657565b634e487b7160e01b600052602160045260246000fd5b6002111561094c57565b61092c565b9061019882610942565b3561017381610922565b3561017381610176565b90600019905b9181191691161790565b9061098f6101736109969261020e565b825461096f565b9055565b61017f816107a6565b356101738161099a565b634e487b7160e01b600052604160045260246000fd5b90601f01601f191681019081106001600160401b038211176109e457604052565b6109ad565b604090610a136101989496959396610a09606084019860008501906102fb565b60208301906102fb565b0152565b6040513d6000823e3d90fd5b9050359061019882610922565b50610173906020810190610a23565b61017390610951565b61025990610a3f565b5061017390602081019061018b565b905035906101988261099a565b50610173906020810190610a60565b610259906101ed565b506101739060208101906101a0565b906040610ad861019893610ab5610aae6000830183610a30565b8590610a48565b610acf610ac56020830183610a6d565b6020860190610a7c565b82810190610a85565b910152565b906020610ad861019893610acf610af76000830183610a6d565b8590610a7c565b906020610ad861019893610acf610b186000830183610a51565b85906102fb565b90610160610ad861019893610b3a610aae6000830183610a30565b610b54610b4a6020830183610a51565b60208601906102fb565b610b6e610b646040830183610a51565b60408601906102fb565b610b7f606082016060860190610a94565b610b9060c0820160c0860190610add565b610ba36101008201610100860190610afe565b610acf610bb4610140830183610a85565b610140860152565b610180810192916101989190610b1f565b50919392909190610bdd8361095b565b610bf0610bea6001610951565b91610951565b03610e64576000610c00816108e1565b610c0981610167565b610c1285610167565b14610e54576040850190610c37610c31610c2b84610965565b92610167565b91610167565b14159081610e36575b50610e2257610c4e84611691565b91610cbf8397610c8a6020880193610c6585610965565b92610c736101408b01610824565b936101608b0194610c8386610824565b918a611a41565b610cba610c97600161020e565b91610cb4610cae610ca787610965565b603c6101f6565b91610824565b9061021b565b61097f565b6060850190610cd8610cd3602084016109a3565b6101ed565b906040610ce482610965565b930192610cf084610824565b833b1561018657610d229388878094610d0860405190565b97889586948593632142170760e11b8552600485016109e9565b03925af1908115610e1d57610dc9610dec94610858610d95610dcd94610dc1610dbb610db58f7f39f0a3d1b22d89a9f26502bcb0f899ae722bbcb9cecfc6ef82198c727cd0d9cd9d610dd99c610dd39c610df1575b5060c08201610dad6020610da681610d9f6101008787019d8e6109a3565b9801968701610965565b9401610824565b9301610824565b923390611ab3565b936109a3565b91610965565b903390611adc565b9590565b9461020e565b946101ed565b94610de360405190565b91829182610bbc565b0390a4565b610e1090823d8411610e16575b610e0881836109c3565b8101906102cc565b38610d77565b503d610dfe565b610a17565b6307df9d7f60e21b815280600481015b0390fd5b610e409150610965565b610e4c610c3185610167565b141538610c40565b50632e2105dd60e01b8152600490fd5b6306fd144d60e11b6000908152600490fd5b610173939291906000610904565b6101739060401c5b60ff1690565b6101739054610e84565b610173905b6001600160401b031690565b6101739054610e9c565b610ea16101736101739290565b906001600160401b0390610975565b610ea1610173610173926001600160401b031690565b90610ef961017361099692610ed3565b8254610ec4565b9060ff60401b9060401b610975565b90610f1f61017361099692151590565b8254610f00565b61025990610eb7565b6020810192916101989190610f26565b91610f48611afe565b938491610f64610f5e610f5a85610e92565b1590565b93610ead565b93600095610f7187610eb7565b6001600160401b0387161480611072575b600196610f9e610f9189610eb7565b916001600160401b031690565b14908161104a575b155b9081611041575b506110325790610fdb93929185610fd289610fc98a610eb7565b9b019a8b610ee9565b61102357611079565b610fe457505050565b61101261101e927fc7f505b2f371ae2175ee4913f4499e1f2633a7b5936321eed1cdaeb6115181d294610f0f565b60405191829182610f2f565b0390a1565b61102d878a610f0f565b611079565b63f92ee8a960e01b8752600487fd5b15905038610faf565b9050610fa8611058306101ed565b3b6110696110658b61020e565b9190565b14919050610fa6565b5084610f82565b916110a36110a89261108e6101989695611b1b565b611096611b32565b61109e611b93565b6117b9565b611b9b565b6117f9565b90610198939291610f3f565b906109199695949392916110cb6119ae565b50929594909391906110dc8561095b565b906000916110ec610bea84610951565b036112b5576111189060608701948661110685880161095b565b61111260408901610824565b90611bd4565b611187610cd3602061112988611691565b9561118189611164899d858301998b6111418c610965565b946101606111526101408301610824565b91019561115e87610824565b92611a41565b610cba611171600161020e565b91610cb4610cae610ca78c610965565b016109a3565b61119083610965565b90803b15610186578583916111c993836111a960405190565b8096819582946111bd6342842e0e60e01b90565b845233600485016109e9565b03925af18015610e1d57611299575b5060c0850190808201916111eb836109a3565b916111f585610965565b91610100890191820161120790610965565b9060200161121490610824565b9160200161122190610824565b9261122b94611ab3565b90611235906109a3565b9161123f90610965565b339061124a93611adc565b906112549061020e565b9061125e336101ed565b9261126860405190565b611273819282610bbc565b037f39f0a3d1b22d89a9f26502bcb0f899ae722bbcb9cecfc6ef82198c727cd0d9cd91a4565b6112af90823d8411610e1657610e0881836109c3565b386111d8565b506306fd144d60e11b8152600490fd5b61017395949392919060006110b9565b6112e26107c8603b6107af565b6112eb33610167565b036107e45761019890610198906118c6565b610198906112d5565b6101737f9016d09d72d40fdae2fd8ceac6b6234c7706214fd39c1cd1e609a0528c1993006107af565b6101989061133b61175c565b61019890611b9b565b6101989061132f565b9061091993929161135c6119ae565b6113fa565b9060c0610ad86101989361137b610b186000830183610a51565b61138b610ac56020830183610a6d565b6113a261139b6040830183610a85565b6040860152565b6113bc6113b26060830183610a6d565b6060860190610a7c565b6113d36113cc6080830183610a85565b6080860152565b610acf6113e360a0830183610a85565b60a0860152565b60e0810192916101989190611361565b509192919061140882610965565b9060009161141b610c316107c8856108e1565b1461159857818301906114306107c883610965565b61143933610167565b03611589576114a46114548561144f60396107af565b611cd8565b91611487839861146460396107af565b9261147160a08a01610824565b9360c08a019461148086610824565b9188611a41565b610cba611494600161020e565b91610cb4610cae610ca788610965565b6114bc6114b6610cd3602087016109a3565b92610965565b6114c6603a6107af565b926114d360408701610824565b90803b15610186576114eb94868094610d0860405190565b03925af1908115610e1d577fb2eca31b677baab6c403b90a67dd64328a9eaa721e1cb58532d003a4f63fef1193611567936115549361156c575b5050610173611536606087016109a3565b611540603a6107af565b61154c60808901610824565b913390611adc565b9261155e60405190565b918291826113ea565b0390a2565b8161158292903d10610e1657610e0881836109c3565b3880611525565b63d8546cf160e01b8352600483fd5b506386762ed960e01b8152600490fd5b610173929190600061134d565b6101739190611cd8565b610198906115cb61175c565b60006115d6816108e1565b6115df81610167565b6115e884610167565b146115f857505061019890611933565b631e4fbdf760e01b82528190610e329060048301610304565b610198906115bf565b6101739081565b610173905461161a565b979593919a9998969492909a61014089019b60008a01611649919052565b6020890161165691610a48565b60408801611663916102fb565b60608701611670916102fb565b608086015260a085015260c084015260e08301526101008201526101200152565b61174661169e6004611621565b6116a78361095b565b9061173a60208501946116b986610965565b956116c660408301610965565b916116d360608201611d98565b6116df60c08301611df4565b6116ec6101008401611e4d565b9161172261171d6117166117106101606117096101408a01610824565b9801610824565b97610965565b60066101f6565b611621565b9561172c60405190565b9b8c9a60208c019a8b61162b565b908103825203826109c3565b611758611751825190565b9160200190565b2090565b611764611306565b3390611772610c3183610167565b0361177a5750565b63118cdaa760e01b6000908152906107f4906004610304565b906001600160a01b0390610975565b906117b2610173610996926101ed565b8254611793565b6117c890610cd38160396117a2565b7f984f980ea2c729aa181173b8f0f78650aea0602fbbf4a7fbbd62f91533d5e3c76117f260405190565b8080611567565b61180890610cd381603b6117a2565b7f622d93b1ff17411ad087ee21f51fc26335dc22879d4621bbab5298e2fb888f316117f260405190565b9061184f611840600161020e565b610cba8361024f86603c6101f6565b61186a61186461185e336101ed565b936101ed565b9161020e565b917f3d4f9f1802e8d452c853ecb7e67f0b2952a80ab67afd1bbe07e7b94fd46cb77861189560405190565b8080610dec565b634e487b7160e01b600052601160045260246000fd5b60001981146118c15760010190565b61189c565b6118eb6118d48260066101f6565b6118e56118e082611621565b6118b2565b9061097f565b6118f961171d8260066101f6565b61190861186461185e336101ed565b917f2f90b6f628d763d0500def06c7670a4a6cacb6861e186a18dada779e8fb6be7161189560405190565b61197361196d7f9016d09d72d40fdae2fd8ceac6b6234c7706214fd39c1cd1e609a0528c199300610cd384611967836107af565b926117a2565b916101ed565b907f8be0079c531659141344cd1fd0a4f28419497f9722a3daafe3b4186f6b6457e061199e60405190565b600090a3565b610173600261020e565b7f9b779b17422d0df92223018b32b4d1fa46e071723d6817e2486d003becc55f006119d881611621565b6119e06119a4565b9081146119f0576101989161097f565b633ee5aeb560e01b6000908152600490fd5b610173600161020e565b6101987f9b779b17422d0df92223018b32b4d1fa46e071723d6817e2486d003becc55f006000611a3a611a02565b910161097f565b94939290914211611a8b5761171d611a5e9161024f84603c6101f6565b611a6b611065600161020e565b14611a7957610198936120d9565b6381e69d9b60e01b6000908152600490fd5b6303d0974960e21b6000908152600490fd5b9190611aa8565b9290565b82039182116118c157565b611ad7919392611acf61017396611ac8600090565b50856122d9565b948592611adc565b611a9d565b929190611ae9600061020e565b8314611af85761019893612313565b50505050565b610173612386565b61019890611b1261238e565b610198906123bd565b61019890611b06565b9061098f6101736109969290565b610198611b6b611b79611b64611b72611b5d611b4c6128c9565b60059a959a98939691929498611b24565b6004611b24565b6003611b24565b6002611b24565b6001611b24565b6000611b24565b611b8861238e565b610198610198612950565b610198611b80565b611baa90610cd381603a6117a2565b7fbccb615726bb25bff9bcffa41eed7a8503660f94e19fcb9f2b3f03a47660609c6117f260405190565b939093611be4610bea6001610951565b03611c4d5790610f5a9291611c04611bfe611c359661020e565b9261020e565b611c23611c1060405190565b602081019283529182906040820161173a565b611c2e611751825190565b2092612958565b611c3b57565b631037b7f560e11b6000908152600490fd5b509050611c5d611065611c629390565b141590565b611c6857565b63c1ab6dc160e01b6000908152600490fd5b9694929099989795939161012088019a60008901611c96919052565b60208801611ca3916102fb565b60408701611cb091610a7c565b606086015260808501611cc291610a7c565b60a084015260c083015260e08201526101000152565b9061174690611ce76005611621565b61173a611cf383610965565b92611d00602082016109a3565b95611d0d60408301610824565b91611d1a606082016109a3565b611d2660808301610824565b90611d4d61171d611d4560c0611d3e60a08801610824565b9601610824565b9560066101f6565b94611d5760405190565b9a8b9960208b01998a611c7a565b610a1361019894611d8e606094989795611d84608086019a6000870152565b6020850190610a48565b6040830190610a7c565b611746611da56001611621565b611dae8361095b565b9061173a611dc36040611d3e602088016109a3565b604051958694602086019485611d65565b908152606081019392610198929091604091610a13906020830190610a7c565b611746611e016003611621565b91611e176020611e10836109a3565b9201610824565b9261173a611e2460405190565b948593602085019384611dd4565b908152606081019392610198929091604091610a1390610a09565b611746611e5a6002611621565b91611e696020611e1083610965565b9261173a611e7660405190565b948593602085019384611e32565b90939293848311610186578411610186578101920390565b359060208110611eaa575090565b611ebc90600019906020036008021b90565b1690565b6101737f649264926492649264926492649264926492649264926492649264926492649261020e565b90610198611ef660405190565b92836109c3565b6001600160401b0381116109e457602090601f01601f19160190565b0190565b90826000939282370152565b90929192611f3e611f3982611efd565b611ee9565b938185528183011161018657610198916020850190611f1d565b610173913691611f29565b9080601f830112156101865781602061017393359101611f29565b9160608383031261018657611f93828461018b565b9260208101356001600160401b0381116101865783611fb3918301611f63565b9260408201356001600160401b038111610186576101739201611f63565b90611fde611f3983611efd565b918252565b3d15611ffd57611ff23d611fd1565b903d6000602084013e565b606090565b60005b8381106120155750506000910152565b8181015183820152602001612005565b61204661204f602093611f199361203a815190565b80835293849260200190565b95869101612002565b601f01601f191690565b602080825261017392910190612025565b6001600160e01b0319811661017f565b905051906101988261206a565b90602082820312610186576101739161207a565b90815260406020820181905261017392910190612025565b6120cc6120c66101739263ffffffff1690565b60e01b90565b6001600160e01b03191690565b906120e56060926129f0565b8460209361210f612109836121026120fc8961020e565b82611a9d565b8a8a611e84565b90611e9c565b61211d611065610173611ec0565b036122bb5761215e6103e861214c612170946121669461213b600090565b50506121468961020e565b90611a9d565b612156600061020e565b809a8a611e84565b810190611f7e565b97909290916101ed565b90843b1461226f575b50505b600094823b61218d6110658861020e565b116121ac57506101989450604084359385013594013560f81c91612ab2565b8394506121c1610cd36121eb949593956101ed565b631626ba7e946121d060405190565b8095819482936121e08a60e01b90565b84526004840161209b565b03915afa928315610e1d57600093612234575b505061220f6120cc61221d926120b3565b916001600160e01b03191690565b036122255750565b638baa579f60e01b8152600490fd5b61221d92935061226061220f92826120cc93903d10612268575b61225881836109c3565b810190612087565b9392506121fe565b503d61224e565b816000929183878194519301915af161228e612289611fe3565b911590565b6122985780612179565b610e32906122a560405190565b639d0d6e2d60e01b815291829160048301612059565b5050936122c89084611f58565b9361217c565b61017361271061020e565b91906122ee906122e76122ce565b9084612b9e565b6122f9611065829490565b101561230157565b6358d620b360e01b6000908152600490fd5b90612358906123496101989560049561232f6323b872dd6120b3565b9361233960405190565b97889560208701908152016109e9565b602082018103825203836109c3565b612cce565b6101737ff0c57e16840df040f15088dc2f81fe391c3923bec73e23a9662efc9c229c6a0061020e565b61017361235d565b612399610f5a612d59565b61239f57565b631afcd79f60e31b6000908152600490fd5b610198906115cb61238e565b610198906123b1565b60196010600f600c600d6001956123ec816c08a92a06e626488dedac2d2dc5609b1b9052565b01612405816b1cdd1c9a5b99c81b985b594b60a21b9052565b01612421816e1cdd1c9a5b99c81d995c9cda5bdb8b608a1b9052565b0161243e816f1d5a5b9d0c8d4d8818da185a5b92590b60821b9052565b0161246481781859191c995cdcc81d995c9a599e5a5b99d0dbdb9d1c9858dd603a1b9052565b01611f1981602960f81b9052565b604051906101988260208101612487816123c6565b908103825203836109c3565b60126013600f600b6001946124b5816a086ded8d8c2e8cae4c2d8560ab1b9052565b016124d1816e1d5a5b9d0e0818dc9a5d195c9a584b608a1b9052565b016124f181721859191c995cdcc818dbdb1b1958dd1a5bdb8b606a1b9052565b0161246481713ab4b73a191a9b1034b232b73a34b334b2b960711b9052565b60405190610198826020810161248781612493565b600c60126009600193612543816808ccacaa8cae4dae6560bb1b9052565b0161256281711859191c995cdcc81c9958da5c1a595b9d0b60721b9052565b01612464816b75696e74323536207261746560a01b9052565b60405190610198826020810161248781612525565b600e6011806001936125b5817009ac2e4d6cae89ecccccae4a8cae4dae65607b1b9052565b016125d381701859191c995cdcc818dd5c9c995b98de4b607a1b9052565b01612464816d1d5a5b9d0c8d4d88185b5bdd5b9d60921b9052565b60405190610198826020810161248781612590565b611f1961261b92602092612615815190565b94859290565b93849101612002565b91612775612775926001600d8060138160176016600e80600b6101739f9e600c9061265d816b09ac2e4d6cae89ecccccae4560a31b9052565b01612675816a1d5a5b9d0e081cda59194b60aa1b9052565b01612690816d1859191c995cdcc81b585ad95c8b60921b9052565b016126ab816d1859191c995cdcc81d185ad95c8b60921b9052565b016126ce817510dbdb1b185d195c985b0818dbdb1b185d195c985b0b60521b9052565b016126f2817613585c9ad95d13d999995c95195c9b5cc81d195c9b5ccb604a1b9052565b0161270c816c11995955195c9b5cc81999594b609a1b9052565b0161272c81721d5a5b9d0c8d4d88195e1c1a5c985d1a5bdb8b606a1b9052565b01612746816c1d5a5b9d0c8d4d881cd85b1d0b609a1b9052565b01612760816c75696e74323536206e6f6e636560981b9052565b0161276e81602960f81b9052565b0190612603565b90612603565b906101989193929361248761278f60405190565b958693602085019384612624565b600d806013600f601160108382806001996127cb81700a4cac8cadae0e8d2dedc86d0c2e4ceca5607b1b9052565b016127e981701859191c995cdcc81c995919595b595c8b607a1b9052565b0161280981721859191c995cdcc818dbdb1b1958dd1a5bdb8b606a1b9052565b01612826816f1d5a5b9d0c8d4d881d1bdad95b92590b60821b9052565b0161284481701859191c995cdcc818dd5c9c995b98de4b607a1b9052565b01612860816e1d5a5b9d0c8d4d88185b5bdd5b9d0b608a1b9052565b0161288081721d5a5b9d0c8d4d88195e1c1a5c985d1a5bdb8b606a1b9052565b0161289a816c1d5a5b9d0c8d4d881cd85b1d0b609a1b9052565b01612464816c75696e74323536206e6f6e636560981b9052565b6040519061019882602081016124878161279d565b6128d1612472565b6128dc611751825190565b20906128e6612510565b906128ef825190565b6020830120916128fd61257b565b9161292b612909845190565b6020850120936129176125ee565b90612920825190565b60208301209461277b565b612936611751825190565b20906117466128b4565b61294861238e565b610198611a0c565b610198612940565b612973929361106592611aa49261296d600090565b50612d6c565b1490565b6129816006611fd1565b654b6574746c6560d01b602082015290565b610173612977565b610173612993565b6129ad6001611fd1565b603160f81b602082015290565b6101736129a3565b6101736129ba565b6129dd6129d76101739290565b60f01b90565b6001600160f01b03191690565b01918252565b611746612a34612a006000611621565b612a0b61017361299b565b612a16611751825190565b20612a226101736129c2565b612a2d611751825190565b2091612def565b612a3f6119016129ca565b61173a612a4b60405190565b948593602085019384602093926129ea6002836129ea8895611f19976001600160f01b0319169052565b610e8c6101736101739290565b610a1361019894612aab606094989795612aa1608086019a6000870152565b60ff166020850152565b6040830152565b939190612abf601b612a75565b60ff8316141580612b4f575b612b3d57612aea600093602095612ae160405190565b94859485612a82565b838052039060015afa15610e1d57600051600091612b0a6107c8846108e1565b612b1383610167565b14918215612b25575b50506122255750565b612b34919250610c3190610167565b14153880612b1c565b630424f48960e41b6000908152600490fd5b50612b5a601c612a75565b60ff83161415612acb565b634e487b7160e01b600052601260045260246000fd5b8115612b85570490565b612b65565b610173601261020e565b610173601161020e565b90600091612bac8282612e13565b929091600094612bbb8661020e565b8414612cbf5783871115612c935786959361017397612c0994612c1c97946001945009908382119003920395612bf881612bf48761020e565b0390565b811680808093049804950304010290565b1791612c1c612c2082612c1c600361020e565b0290565b612bf4611864612c8d612c7e612c6f612c60612c51600297612c418961020e565b18612c1c8b8202612bf48b61020e565b612c1c8a8202612bf48a61020e565b612c1c898202612bf48961020e565b612c1c888202612bf48861020e565b612c1c878202612bf48761020e565b80950290565b612cba87612ca36110658961020e565b14612cac612b8a565b612cb4612b94565b91612e27565b612e43565b50505050610173929150612b7b565b906000602091612cdc600090565b50828151910182855af115610a17573d90600051600092612cff6110658561020e565b03612d455750612d0e816101ed565b3b612d1b6110658461020e565b145b612d25575050565b610e32612d3283926101ed565b635274afe760e01b835260048301610304565b612d52611065600161020e565b1415612d1d565b6101736000612d66611afe565b01610e92565b612d76600061020e565b925b82841015612da857612d9b612da291612d9561085887878761080f565b90612e54565b9360010190565b92612d78565b9250505090565b9095949261019894612de1612de892612dda608096612dd360a088019c6000890152565b6020870152565b6040850152565b6060830152565b01906102fb565b916117469161173a612e00306101ed565b6040519586946020860194469286612daf565b906000198183099102908180821091030391565b612c1c83612e3f93612e37600090565b501891151590565b1890565b634e487b716000526020526024601cfd5b81811015612e6f579061017391600052602052604060002090565b6101739160005260205260406000209056fea2646970667358221220716b3871c7c9e764981fb93ee184259627e4ac3c73e81eb47144045e2059130264736f6c634300081c0033",
  "linkReferences": {},
  "deployedLinkReferences": {}
}